:100000000C9436000C945E000C945E000C941D045D
:100010000C941D040C941D040C9427040C945E0095
:100020000C945E000C945E000C945E000C945E00D8
:100030000C945E000C945E000C945E000C945E00C8
:100040000C94A5020C945E000C9473020C944D0267
:100050000C945E000C945E000C945E000C945E00A8
:100060000C94EF020C945E00E5092E0911241FBECA
:10007000CFEFD8E0DEBFCDBF23E0A6ECB1E001C0FA
:100080001D92AF37B207E1F711E0A0E0B1E0ECE07C
:10009000FAE102C005900D92A63CB107D9F710E035
:1000A000C5E3D0E004C02197FE010E94DE0AC433FC
:1000B000D107C9F70E9489060C94F90C0C94000032
:1000C0000895CF92DF92EF92FF920F931F93CF93F9
:1000D000DF936C017A018B01C0E0D0E0CE15DF0523
:1000E00089F0D8016D918D01D601ED91FC910190BF
:1000F000F081E02DC6010995892B11F47E0102C023
:100100002196ECCFC701DF91CF911F910F91FF9006
:10011000EF90DF90CF900895FC01538D448D252FF3
:1001200030E0842F90E0821B930B541710F0CF9691
:10013000089501970895FC01918D828D981761F0C3
:10014000828DDF01A80FB11D5D968C91928D9F5F0E
:100150009F73928F90E008958FEF9FEF0895FC01B9
:10016000918D828D981731F0828DE80FF11D858D6C
:1001700090E008958FEF9FEF0895FC01918D228DFF
:10018000892F90E0805C9F4F821B91098F73992784
:10019000089585EA92E00E94BD0021E0892B09F4D0
:1001A00020E0822F0895FC01848DDF01A80FB11D8E
:1001B000A35ABF4F2C91848D90E001968F7399279D
:1001C000848FA689B7892C93A089B1898C9180648A
:1001D0008C93938D848D981306C00288F389E02D4B
:1001E00080818F7D80830895EF92FF920F931F93FC
:1001F000CF93DF93EC0181E0888F9B8D8C8D9813DA
:1002000005C0E889F989808185FD24C0F62E0B8D13
:1002100010E00F5F1F4F0F731127E02E8C8DE81237
:100220000CC00FB607FCFACFE889F989808185FFF9
:10023000F5CFCE010E94D300F1CF8B8DFE01E80FE8
:10024000F11DE35AFF4FF0820B8FEA89FB89808111
:10025000806207C0EE89FF896083E889F98980811F
:100260008064808381E090E0DF91CF911F910F91B6
:10027000FF90EF900895CF93DF93EC01888D882352
:10028000C9F0EA89FB89808185FD05C0A889B98903
:100290008C9186FD0FC00FB607FCF5CF808185FFDE
:1002A000F2CFA889B9898C9185FFEDCFCE010E944C
:1002B000D300E7CFDF91CF91089580E090E0892BC4
:1002C00029F00E94C90081110C940000089585ED69
:1002D0008093BC008091BC0084FDFCCF1092320260
:1002E000089540910C02262F30E0240F311D213259
:1002F0003105DCF4209132022430C9F4FC0180E0A5
:1003000090E0861758F430910C022191DC01A6513F
:10031000BE4FA30FB11D2C930196F3CF80910C0219
:10032000680F60930C0280E0089581E0089582E0F8
:10033000089508958FEF9FEF08958FEF9FEF089531
:100340008091E90190E09195819591090895CF936D
:10035000DF9300D0CDB7DEB7CB01642F49835A833A
:100360000E9471014981842F5A81952F0F900F901F
:10037000DF91CF910895CF93DF931F92CDB7DEB772
:10038000698361E0CE0101960E94710181E090E0F5
:100390000F90DF91CF910895089580E090E0089547
:1003A0000E94DB0CEF92FF920F931F93CF93DF938A
:1003B000EC017B018A0188819981009729F02A81CB
:1003C0003B8124173507F8F4B8016F5F7F4F0E9417
:1003D000110C009759F0998388831B830A832C8121
:1003E0003D81232B81F4FC0110820DC0888199810D
:1003F000009711F00E94790B198218821D821C82CD
:100400001B821A8207C01D830C83B70188819981E2
:100410000E94F20CCE01DF91CF911F910F91FF90BE
:10042000EF900895CF93DF93EC016115710559F0BA
:10043000FB0101900020E9F73197AF01461B570BF4
:100440000E94D2010CC088819981009711F00E940E
:10045000790B198218821D821C821B821A82CE019E
:10046000DF91CF910895FC01808191810C94790BEB
:10047000FC0111821082138212821582148261158E
:10048000710551F0FB0101900020E9F73197AF01B0
:10049000461B570B0C94D20108951F920F920FB672
:1004A0000F9211242F933F934F935F936F937F93FA
:1004B0008F939F93AF93BF93EF93FF9385EA92E05F
:1004C0000E94D300FF91EF91BF91AF919F918F91C7
:1004D0007F916F915F914F913F912F910F900FBE40
:1004E0000F901F9018951F920F920FB60F92112424
:1004F0002F938F939F93EF93FF93E091B502F09129
:10050000B6028081E091BB02F091BC0282FD12C074
:1005100090818091BE028F5F8F732091BF028217FE
:1005200051F0E091BE02F0E0EB55FD4F958F8093C6
:10053000BE0201C08081FF91EF919F918F912F9119
:100540000F900FBE0F901F9018951F920F920FB62D
:100550000F9211242F933F938F939F93AF93BF9349
:1005600080915F0290916002A0916102B09162025D
:1005700030915C0223E0230F2D3720F40196A11D5A
:10058000B11D05C026E8230F0296A11DB11D2093C1
:100590005C0280935F0290936002A0936102B0932B
:1005A00062028091580290915902A0915A02B09132
:1005B0005B020196A11DB11D8093580290935902D0
:1005C000A0935A02B0935B02BF91AF919F918F911C
:1005D0003F912F910F900FBE0F901F9018951F9273
:1005E0000F920FB60F9211242F933F934F935F9367
:1005F0006F937F938F939F93AF93BF93EF93FF93EB
:100600008091B900887F803609F49CC068F58832F3
:1006100009F45BC090F4803109F454C038F48823A5
:1006200009F4F6C0883009F44DC0F6C0883109F4E9
:100630004CC0803209F45DC0EFC0803409F468C05A
:1006400048F4803309F455C0883309F0E5C080933D
:100650003102D8C0803509F44FC0883509F45DC037
:10066000883409F0D9C0D6C0883909F4C7C0A8F4C5
:10067000883709F467C038F4883609F463C08037D6
:1006800009F460C0C9C0883809F4B8C0803909F4D9
:100690005FC0803809F0C0C05BC0803B09F486C0F1
:1006A00038F4803A09F466C0883A09F47FC0B4C0CF
:1006B000803C09F4A7C0883C09F4A4C0883B09F435
:1006C0008AC0AAC08091570210C0909156028091B2
:1006D0005502981770F5E091560281E08E0F8093D5
:1006E0005602F0E0EB5CFD4F80818093BB0085EC0F
:1006F00086C0809331028EC0E091560281E08E0F59
:10070000809356028091BB00F0E0EB5CFD4F80834C
:1007100090915602809155026EC0E091560281E0A0
:100720008E0F809356028091BB00F0E0EB5CFD4F92
:1007300080838091340281116DC081E08093330207
:1007400084EA61C083E08093320210923002CFCFFE
:1007500080913002803208F051C0E091300281E097
:100760008E0F809330028091BB00F0E0E05FFD4F80
:100770008083BDCF85EC8093BC00109232028091C3
:100780003002803230F4E0913002F0E0E05FFD4F63
:1007900010826091300270E0E0910E02F0910F0241
:1007A00080E192E009951092300236C084E0809397
:1007B000320210920D0210920C02E0910A02F091A6
:1007C0000B02099580910C02811105C081E0809394
:1007D0000C021092EA01E0910D0281E08E0F8093ED
:1007E0000D02F0E0E651FE4F80818093BB009091B6
:1007F0000D0280910C02981708F479CF85E8809358
:10080000BC000AC085EC8093BC001092320204C088
:10081000109231020E946701FF91EF91BF91AF9159
:100820009F918F917F916F915F914F913F912F9108
:100830000F900FBE0F901F9018951F920F920FB63A
:100840000F9211240F900FBE0F901F9018951F92BA
:100850000F920FB60F9211240F931F932F933F9374
:100860004F935F936F937F938F939F93AF93BF93B8
:10087000EF93FF939091840080915E02E82FF0E067
:10088000E953FE4F90838F5F80935E02803208F4BD
:1008900018C18091920290919302890F8770809382
:1008A0005D0280E0E0915D0224E0E29FF00111240E
:1008B000EE58FD4F4081518162817381A82FB0E0D5
:1008C000A953BE4F9C91490F511D611D711D40835D
:1008D000518362837383E0915D0294E0E99FF001AC
:1008E0001124EE58FD4F4081518162817381E09166
:1008F0005D0224E0E29FF0011124EE58FD4F0081DB
:100900001181228133819AE0440F551F661F771FA2
:100910009A95D1F7400F511F621F731F4083518377
:1009200062837383E0915D0294E0E99FF0011124FA
:10093000EE58FD4F4081518162817381E0915D02EB
:1009400024E0E29FF0011124EE58FD4F0081118157
:1009500022813381A6E07695679557954795AA95AC
:10096000D1F7402751276227732740835183628341
:1009700073838F5F803209F095CF8093C601E09139
:100980005D0284E0E89FF0011124EE58FD4F808164
:100990009181A281B381E0915D0224E0E29FF001A8
:1009A0001124EE58FD4F408151816281738123E013
:1009B000880F991FAA1FBB1F2A95D1F7840F951F77
:1009C000A61FB71F80839183A283B383E0915D024A
:1009D00084E0E89FF0011124EE58FD4F8081918161
:1009E000A281B381E0915D0224E0E29FF001112435
:1009F000EE58FD4F40815181628173813BE0B69595
:100A0000A795979587953A95D1F784279527A62797
:100A1000B72780839183A283B383E0915D0284E052
:100A2000E89FF0011124EE58FD4F80819181A28151
:100A3000B381E0915D0224E0E29FF0011124EE58C1
:100A4000FD4F40815181628173811FE0880F991FA2
:100A5000AA1FBB1F1A95D1F7840F951FA61FB71F9A
:100A600080839183A283B383E0915D02A0915D02B4
:100A700084E0A89FD0011124AE58BD4F8D919D9167
:100A80000D90BC91A02D24E0E29FF0011124EE58BE
:100A9000FD4F80839183A283B38310925E02809185
:100AA0009302883049F48091920290E00196877019
:100AB00099278093920205C0809193028F5F809363
:100AC0009302FF91EF91BF91AF919F918F917F9191
:100AD0006F915F914F913F912F911F910F910F90C7
:100AE0000FBE0F901F9018958F929F92AF92BF925A
:100AF000CF92DF92EF92FF92CF93DF93C4E9D2E0DF
:100B0000CC24CA94DC2C760193E0892E912CA12C64
:100B1000B12CC092A102D092A202E092A302F09264
:100B2000A4028091A1029091A202A091A302B0918F
:100B3000A40280349105A105B10508F457C0809145
:100B40004E03811138C0809193028823E1F32FB7BF
:100B5000F894E091920284E0E89FF0011124EE58AD
:100B6000FD4F80819181A281B3818093A1029093F6
:100B7000A202A093A302B093A4028091920290E0FB
:100B800001968770992780939202809193028150F9
:100B9000809393022FBF8091A1029091A202A09115
:100BA000A302B091A40280939D0290939E02A09311
:100BB0009F02B093A00280914E03E82FF0E0E3562D
:100BC000FD4F60818F5F837080934E0370E080E003
:100BD00090E0A50194010E94BC0A2093A1023093E9
:100BE000A2024093A3025093A4029BCF8A309105A6
:100BF000A105B10510F4805D16C08A309105A105EC
:100C0000B10571F08B309105A105B10559F086321F
:100C10009105A105B10510F48B5C05C0855C03C08E
:100C20008DE201C08EE2899382E0CC39D80709F0C9
:100C300070CF10929C0284E992E0DF91CF91FF90F7
:100C4000EF90DF90CF90BF90AF909F908F900895DE
:100C5000009769F0FC0101900020E9F73197AF019E
:100C6000481B590BBC0185EA92E00C94610080E0BE
:100C700090E00895CF93DF930E942806EC018CE466
:100C800091E00E9428068C0F9D1FDF91CF9108955F
:100C90008F929F92AF92BF920F931F93CF93DF9348
:100CA000CDB7DEB7A1970FB6F894DEBF0FBECDBFAC
:100CB00019A2423008F44AE08E010F5D1F4F842EC6
:100CC000912CA12CB12CA50194010E94BC0AE62F05
:100CD000B901CA0101501109EA3014F4E05D01C004
:100CE000E95CD801EC93232B242B252B61F7C80159
:100CF0000E942806A1960FB6F894DEBF0FBECDBFA6
:100D0000DF91CF911F910F91BF90AF909F908F90E7
:100D10000895CF93DF93CDB7DEB7C357D1090FB690
:100D2000F894DEBF0FBECDBF789484B5826084BDD9
:100D300084B5816084BD85B5826085BD85B58160DF
:100D400085BD80916E00816080936E00109281005D
:100D50008091810082608093810080918100816018
:100D600080938100809180008160809380008091D9
:100D7000B10084608093B1008091B0008160809365
:100D8000B00080917A00846080937A0080917A002C
:100D9000826080937A0080917A00816080937A00EB
:100DA00080917A00806880937A001092C100E0916F
:100DB000B502F091B60282E08083E091B102F09139
:100DC000B2021082E091B302F091B4028FEC808302
:100DD0001092BD02E091B902F091BA0286E08083E0
:100DE000E091B702F091B802808180618083E09148
:100DF000B702F091B802808188608083E091B702E9
:100E0000F091B802808180688083E091B702F09110
:100E1000B80280818F7D808380E092ECA1E0B0E019
:100E20008093A9029093AA02A093AB02B093AC0264
:100E300010925E021092920210925D021092930242
:100E4000F89414BE8091600088618093600080E413
:100E50008093600078948AE291E00E943A06409183
:100E60004C0350914D03609148037091490385EA0A
:100E700092E00E9461008EE4A82E81E0B82ECE019F
:100E800001966C012C016EE471E0CE0182599F4FF6
:100E90000E943802409146035091470360914203FB
:100EA0007091430385EA92E00E9461000E947405FC
:100EB0000E943A066EE471E0CE0188599F4F0E946D
:100EC0003802AE968EAD9FADAE97892B21F4760198
:100ED00000E010E04BC06EE471E0CE0188599F4FF6
:100EE0000E941202F201CF018C199D0981359105F2
:100EF00074F7A192F8CF2FB7F89480915F02909188
:100F00006002A0916102B09162022FBF4091AD02D8
:100F10005091AE026091AF027091B002841B950BAC
:100F2000A60BB70B4091A9025091AA026091AB02A7
:100F30007091AC0284179507A607B70758F5E091A2
:100F4000A502F091A6020284F385E02D85EA92E0E5
:100F5000099597FDD0CF85329105E1F0F701819396
:100F60007F010F5F1F4F00351105A1F02FB7F894D7
:100F700080915F0290916002A0916102B091620243
:100F80002FBF8093AD029093AE02A093AF02B093B7
:100F9000B002D5CFA4961FAE1EAEA497A6961FAEE4
:100FA0001EAEA697A8961FAE1EAEA8974AE0BE0139
:100FB0006F5A7F4FC8010E94530ABE016F5A7F4F7C
:100FC000CE018E599F4F0E941202AA968EAD9FAD00
:100FD000AA970097F9F0A4966EAD7FADA49761151E
:100FE0007105B1F0AC964EAD5FADAC97A8962EAD45
:100FF0003FADA8974217530758F00E94F20CA896ED
:101000008EAD9FADA897AE969FAF8EAFAE9722C024
:101010000E94790BA4968EAD9FADA497AA969FAF20
:101020008EAFAA97A6968EAD9FADA697AC969FAFB2
:101030008EAFAC97A8968EAD9FADA897AE969FAF9A
:101040008EAFAE97A4961FAE1EAEA497A6961FAE07
:101050001EAEA697A8961FAE1EAEA897CE018E59BB
:101060009F4F0E9433026EE471E0CE018E599F4F74
:101070000E943802812C912C00E010E0F601E00F74
:10108000F11F80817801803509F475C0833509F43A
:1010900048C0873409F0C9C0FFEFEF1AFF0A84E3A4
:1010A00091E00E943A06F601EE0DFF1D8081803529
:1010B00091F1843539F0853489F584E391E00E941B
:1010C0003A0621C0780182E0E80EF11C81E491E04B
:1010D0004FC0C4010E947D0A682F70E080E090E05C
:1010E00040E10E9448068AE491E00E942806C4017B
:1010F00087709927019721F48CE491E00E942806DB
:101100009FEF891A990AE1E08E16E4E09E060CF33F
:101110008FE491E02DC00E9474052AC083E691E01F
:1011200027C0FFEFEF1AFF0AF601EE0DFF1D8081C9
:101130008E3409F07AC0370183E090E08C0F9D1F58
:10114000080F191F8FE06816710484F4F80160819C
:10115000F301ED59FD4F608370E080E090E04AE0DC
:101160000E944806FFEF6F1A7F0AECCF86E691E0F7
:101170000E943A065AC09FEFE91AF90A0B5F1F4F07
:1011800037010E151F0510F4380187016EE471E078
:10119000CE018F5A9F4F0E943802E4968EAD9FADCC
:1011A000E49768167906F8F48017910708F48C0123
:1011B000E096EEADFFADE097E00FF11F30801082BA
:1011C000E0966EAD7FADE097660D771DCE018F5A2C
:1011D0009F4F0E941202E0968EAD9FADE097FC01FA
:1011E000E00FF11F308267968EAD9FAD6797892B18
:1011F00029F411E08DB5882369F00BC06DE470E02F
:1012000063968EAD9FAD63970E94E90C11E0892B28
:1012100009F010E0CE018F5A9F4F0E943302112334
:1012200021F080E691E00E94280687010F5F1F4FA2
:10123000013511050CF422CFCE018E599F4F0E942B
:101240003302CE0188599F4F0E943302CE0182594A
:101250009F4F0E9433020E945D0115CEEF92FF92D4
:101260000F931F93CF93DF938BE593E00E9433029C
:1012700082E493E00E94330281E693E00E9433020D
:1012800088E493E00E9433028091670390916803A1
:10129000892BC9F000E010E0C0E0D0E020916703A6
:1012A000309168038091690390916A03C217D30754
:1012B00040F4800F911F0E9433022196065F1F4F5A
:1012C000EDCF0E94790B80916B0390916C03892B79
:1012D00031F080916D0390916E030E94790B8091A3
:1012E0006F0390917003892BC9F000E010E0C0E01B
:1012F000D0E020916F033091700380917103909141
:101300007203C217D30740F4800F911F0E9433026B
:101310002196005F1F4FEDCF0E94790B80917303E0
:1013200090917403892B29F1E12CF12C00E010E05D
:10133000209173033091740380917503909176032B
:1013400002171307A0F4EC01CE0DDF1D8E819F81E3
:10135000892B21F0888599850E94790BCE010E9406
:1013600033020F5F1F4F8AE0E80EF11CE1CF0E94AD
:10137000790B8091770390917803892BF9F000E045
:1013800010E0C0E0D0E020917703309178038091A5
:10139000790390917A03C217D30740F4800F911F0D
:1013A0000E9433022196085F1F4FEDCFDF91CF914E
:1013B0001F910F91FF90EF900C94790BDF91CF91DB
:1013C0001F910F91FF90EF900895E5EAF2E01382EC
:1013D000128288EE93E0A0E0B0E084839583A68338
:1013E000B7832AE031E03183208325EC30E0358774
:1013F000248724EC30E03787268720EC30E0318BDF
:10140000208B21EC30E0338B228B22EC30E0358BCB
:10141000248B26EC30E0378B268B118E128E138EA8
:10142000148EEFE4F3E01382128284839583A68303
:10143000B7838CE191E091838083E7E7F3E0118249
:10144000108213821282E3E7F3E01182108213828A
:101450001282EFE6F3E01182108213821282EBE631
:10146000F3E01182108213821282E7E6F3E0118228
:101470001082138212826DE671E088E493E00E948C
:10148000380264EA71E081E693E00E9438026AEB78
:1014900071E082E493E00E9438026EE471E08BE533
:1014A00093E00C943802BB27FB015527AA27880F2D
:1014B000991FAA1FA41710F0A41B83955051B9F7C8
:1014C000A05DAA3308F0A95DA193009779F7B11147
:1014D000B1931192CB010C946D0ADC01FC01672FD2
:1014E00071917723E1F7329704C07C916D937083FB
:1014F0006291AE17BF07C8F30895F999FECF92BD68
:1015000081BDF89A992780B508952F923F924F9206
:101510005F926F927F928F929F92AF92BF92CF9283
:10152000DF92EF92FF920F931F93CF93DF93CDB78C
:10153000DEB7CA1BDB0B0FB6F894DEBF0FBECDBF04
:1015400009942A88398848885F846E847D848C84D5
:101550009B84AA84B984C884DF80EE80FD800C81DE
:101560001B81AA81B981CE0FD11D0FB6F894DEBFC1
:101570000FBECDBFED010895A1E21A2EAA1BBB1B21
:10158000FD010DC0AA1FBB1FEE1FFF1FA217B3074F
:10159000E407F50720F0A21BB30BE40BF50B661F65
:1015A000771F881F991F1A9469F760957095809529
:1015B00090959B01AC01BD01CF010895EE0FFF1F77
:1015C0000590F491E02D0994CF93DF93823091053B
:1015D00010F482E090E0E0917D03F0917E0320E042
:1015E00030E0C0E0D0E0309711F1408151814817E0
:1015F0005907C0F04817590761F4828193812097F9
:1016000019F09B838A832BC090937E0380937D0384
:1016100026C02115310519F04217530718F49A0115
:10162000BE01DF01EF010280F381E02DDCCF211547
:10163000310509F1281B390B2430310590F412963D
:101640008D919C9113976115710521F0FB01938396
:10165000828304C090937E0380937D03FD013296C4
:1016600044C0FD01E20FF31F819391932250310991
:101670002D933C933AC020917B0330917C03232B24
:1016800041F4209102013091030130937C032093B7
:101690007B0320910001309101012115310541F4B6
:1016A0002DB73EB74091040150910501241B350B25
:1016B000E0917B03F0917C03E217F307A0F42E1B6B
:1016C0003F0B2817390778F0AC014E5F5F4F2417A6
:1016D000350748F04E0F5F1F50937C0340937B0308
:1016E0008193919302C0E0E0F0E0CF01DF91CF91D0
:1016F00008950F931F93CF93DF93009709F48CC045
:10170000FC0132971382128200917D0310917E03B7
:101710000115110581F420813181820F931F2091E1
:101720007B0330917C032817390779F5F0937C030C
:10173000E0937B0371C0D80140E050E0AE17BF07D3
:1017400050F412962D913C911397AD01211531055E
:1017500009F1D901F3CF9D01DA013383228360813E
:101760007181860F971F8217930769F4EC01288116
:101770003981260F371F2E5F3F4F318320838A81A7
:101780009B8193838283452B29F4F0937E03E0931E
:101790007D0342C01396FC93EE931297ED0149919D
:1017A00059919E01240F351FE217F30771F48081D0
:1017B0009181840F951F029611969C938E9382813E
:1017C000938113969C938E931297E0E0F0E0D801FA
:1017D00012968D919C911397009719F0F8018C0146
:1017E000F6CF8D919C9198012E5F3F4F820F931FF2
:1017F00020917B0330917C032817390769F43097D7
:1018000029F410927E0310927D0302C0138212828B
:1018100010937C0300937B03DF91CF911F910F9175
:101820000895A0E0B0E0E7E1FCE00C94890AEC0147
:10183000009721F4CB010E94E40AB8C0FC01E60F36
:10184000F71F9C0122503109E217F30708F4ACC0DE
:10185000D9010D911C91119706171707B0F00530AB
:10186000110508F49FC0C80104978617970708F46C
:1018700099C002501109061B170B019311936D9328
:101880007C93CF010E94790B8DC05B01A01AB10A35
:101890004C01800E911EA0917D03B0917E0340E02B
:1018A00050E0E12CF12C109709F44AC0A815B905B5
:1018B000D1F56D907C901197630182E0C80ED11C28
:1018C000CA14DB0480F1A3014A195B096A0182E0B2
:1018D000C80ED11C1296BC9012971396AC91B5E02D
:1018E000CB16D10440F0B282A38351834083D90147
:1018F0006D937C930AC00E5F1F4FC301800F911F31
:10190000F90191838083EB2DFA2FE114F10431F07A
:10191000D7011396FC93EE93129744C0F0937E0385
:10192000E0937D033FC08D919C9111974817590713
:1019300008F4AC017D0112960D90BC91A02DB3CF9F
:1019400080917B0390917C0388159905E1F44617FB
:101950005707C8F48091000190910101009741F46C
:101960008DB79EB74091040150910501841B950BE2
:10197000E817F907C8F4F0937C03E0937B03F901BF
:10198000718360830FC0CB010E94E40A7C01009741
:1019900059F0A801BE010E94E00CCE010E94790B13
:1019A000C70104C0CE0102C080E090E0CDB7DEB731
:1019B000EEE00C94A50A81E090E0F8940C94F90C08
:1019C000FB01DC0102C001900D9241505040D8F75C
:1019D0000895FB01DC018D91019080190110D9F36C
:1019E000990B0895FB01DC0101900D920020E1F7B5
:1019F000089510E0C5E3D0E004C0FE010E94DE0AB5
:0C1A00002196C633D107C9F7F894FFCF38
:101A0C0000007F03800000000000F40061008C00E7
:101A1C003B01BD009B00AF0000000000BB01A70113
:101A2C00CD019901A0019D019A0153657475703A1D
:101A3C00204F4B00434D44207265636569766564A5
:101A4C0000546573743A204F4B0020000D0A000AB5
:101A5C000D456E64206F6620454550524F4D3A201F
:101A6C004F4B00212100546573746564002A2A2AA7
:101A7C002A2A2A2A2A2A2A2A2A2A2A2A2A0A0D2AF7
:101A8C00205061737347656E3920202020202A0A6C
:101A9C000D2A2A2A2A2A2A2A2A2A2A2A2A2A2A2AB7
:101AAC002A0A0D0068747470733A2F2F7777772E8B
:101ABC00676F6F676C652E63610050617373776F2E
:061ACC007264203A0000E4
:00000001FF
